{
  "_format": "hh-sol-artifact-1",
  "contractName": "HTLC",
  "sourceName": "solidity/HTLC.sol",
  "abi": [
    {
      "anonymous": false,
      "inputs": [
        {
          "indexed": false,
          "internalType": "bytes",
          "name": "preImage",
          "type": "bytes"
        },
        {
          "indexed": false,
          "internalType": "bytes32",
          "name": "hashValue",
          "type": "bytes32"
        },
        {
          "indexed": false,
          "internalType": "uint256",
          "name": "when",
          "type": "uint256"
        },
        {
          "indexed": false,
          "internalType": "uint256",
          "name": "amount",
          "type": "uint256"
        },
        {
          "indexed": false,
          "internalType": "address",
          "name": "tokenAddress",
          "type": "address"
        },
        {
          "indexed": false,
          "internalType": "address",
          "name": "senderAddress",
          "type": "address"
        },
        {
          "indexed": false,
          "internalType": "address",
          "name": "receiverAddress",
          "type": "address"
        }
      ],
      "name": "Claimed",
      "type": "event"
    },
    {
      "anonymous": false,
      "inputs": [
        {
          "indexed": false,
          "internalType": "bytes32",
          "name": "hashValue",
          "type": "bytes32"
        },
        {
          "indexed": false,
          "internalType": "uint256",
          "name": "when",
          "type": "uint256"
        },
        {
          "indexed": false,
          "internalType": "uint256",
          "name": "amount",
          "type": "uint256"
        },
        {
          "indexed": false,
          "internalType": "address",
          "name": "tokenAddress",
          "type": "address"
        },
        {
          "indexed": false,
          "internalType": "address",
          "name": "senderAddress",
          "type": "address"
        },
        {
          "indexed": false,
          "internalType": "address",
          "name": "receiverAddress",
          "type": "address"
        }
      ],
      "name": "Locked",
      "type": "event"
    },
    {
      "anonymous": false,
      "inputs": [
        {
          "indexed": false,
          "internalType": "bytes32",
          "name": "hashValue",
          "type": "bytes32"
        },
        {
          "indexed": false,
          "internalType": "uint256",
          "name": "when",
          "type": "uint256"
        },
        {
          "indexed": false,
          "internalType": "uint256",
          "name": "amount",
          "type": "uint256"
        },
        {
          "indexed": false,
          "internalType": "address",
          "name": "tokenAddress",
          "type": "address"
        },
        {
          "indexed": false,
          "internalType": "address",
          "name": "senderAddress",
          "type": "address"
        },
        {
          "indexed": false,
          "internalType": "address",
          "name": "receiverAddress",
          "type": "address"
        }
      ],
      "name": "Retaken",
      "type": "event"
    },
    {
      "inputs": [
        {
          "internalType": "bytes",
          "name": "preImage",
          "type": "bytes"
        }
      ],
      "name": "claim",
      "outputs": [],
      "stateMutability": "nonpayable",
      "type": "function"
    },
    {
      "inputs": [
        {
          "internalType": "bytes32",
          "name": "hashValue",
          "type": "bytes32"
        },
        {
          "internalType": "uint256",
          "name": "unlockTime",
          "type": "uint256"
        },
        {
          "internalType": "uint256",
          "name": "amount",
          "type": "uint256"
        },
        {
          "internalType": "address",
          "name": "tokenAddress",
          "type": "address"
        },
        {
          "internalType": "address",
          "name": "receiverAddress",
          "type": "address"
        }
      ],
      "name": "lock",
      "outputs": [],
      "stateMutability": "nonpayable",
      "type": "function"
    },
    {
      "inputs": [
        {
          "internalType": "bytes32",
          "name": "",
          "type": "bytes32"
        }
      ],
      "name": "locks",
      "outputs": [
        {
          "internalType": "uint256",
          "name": "unlockTime",
          "type": "uint256"
        },
        {
          "internalType": "uint256",
          "name": "amount",
          "type": "uint256"
        },
        {
          "internalType": "address",
          "name": "tokenAddress",
          "type": "address"
        },
        {
          "internalType": "address",
          "name": "senderAddress",
          "type": "address"
        },
        {
          "internalType": "address",
          "name": "receiverAddress",
          "type": "address"
        }
      ],
      "stateMutability": "view",
      "type": "function"
    },
    {
      "inputs": [
        {
          "internalType": "bytes32",
          "name": "hashValue",
          "type": "bytes32"
        }
      ],
      "name": "retake",
      "outputs": [],
      "stateMutability": "nonpayable",
      "type": "function"
    }
  ],
  "bytecode": "0x608060405234801561001057600080fd5b506115f0806100206000396000f3fe608060405234801561001057600080fd5b506004361061004c5760003560e01c8063c63ff8dd14610051578063d3381bcf1461006d578063ed5e843714610089578063f331e91f146100bd575b600080fd5b61006b60048036038101906100669190610bbd565b6100d9565b005b61008760048036038101906100829190610c40565b610472565b005b6100a3600480360381019061009e9190610c40565b6107ea565b6040516100b4959493929190610cc7565b60405180910390f35b6100d760048036038101906100d29190610d72565b610880565b005b600082826040516100eb929190610e2c565b604051809103902090506000806000838152602001908152602001600020905060008160010154905060008111610157576040517f08c379a000000000000000000000000000000000000000000000000000000000815260040161014e90610ec8565b60405180910390fd5b8160000154421061019d576040517f08c379a000000000000000000000000000000000000000000000000000000000815260040161019490610f5a565b60405180910390fd5b60008260040160009054906101000a900473ffffffffffffffffffffffffffffffffffffffff1690508073ffffffffffffffffffffffffffffffffffffffff163373ffffffffffffffffffffffffffffffffffffffff1614610234576040517f08c379a000000000000000000000000000000000000000000000000000000000815260040161022b90610fec565b60405180910390fd5b60008360020160009054906101000a900473ffffffffffffffffffffffffffffffffffffffff16905060008086815260200190815260200160002060008082016000905560018201600090556002820160006101000a81549073ffffffffffffffffffffffffffffffffffffffff02191690556003820160006101000a81549073ffffffffffffffffffffffffffffffffffffffff02191690556004820160006101000a81549073ffffffffffffffffffffffffffffffffffffffff021916905550508073ffffffffffffffffffffffffffffffffffffffff1663a9059cbb83856040518363ffffffff1660e01b815260040161033292919061100c565b6020604051808303816000875af1158015610351573d6000803e3d6000fd5b505050506040513d601f19601f82011682018060405250810190610375919061106d565b6103b4576040517f08c379a00000000000000000000000000000000000000000000000000000000081526004016103ab9061110c565b60405180910390fd5b7f9baa2625abab959dfcaa38cf2046eb3d90f7e017d3c1a9ae36b079d5c77db9378787874288600101548960020160009054906101000a900473ffffffffffffffffffffffffffffffffffffffff168a60030160009054906101000a900473ffffffffffffffffffffffffffffffffffffffff168b60040160009054906101000a900473ffffffffffffffffffffffffffffffffffffffff1660405161046198979695949392919061118a565b60405180910390a150505050505050565b60008060008381526020019081526020016000209050600081600101549050600081116104d4576040517f08c379a00000000000000000000000000000000000000000000000000000000081526004016104cb90611274565b60405180910390fd5b816000015442101561051b576040517f08c379a000000000000000000000000000000000000000000000000000000000815260040161051290611306565b60405180910390fd5b60008260030160009054906101000a900473ffffffffffffffffffffffffffffffffffffffff1690508073ffffffffffffffffffffffffffffffffffffffff163373ffffffffffffffffffffffffffffffffffffffff16146105b2576040517f08c379a00000000000000000000000000000000000000000000000000000000081526004016105a990611372565b60405180910390fd5b60008360020160009054906101000a900473ffffffffffffffffffffffffffffffffffffffff16905060008086815260200190815260200160002060008082016000905560018201600090556002820160006101000a81549073ffffffffffffffffffffffffffffffffffffffff02191690556003820160006101000a81549073ffffffffffffffffffffffffffffffffffffffff02191690556004820160006101000a81549073ffffffffffffffffffffffffffffffffffffffff021916905550508073ffffffffffffffffffffffffffffffffffffffff1663a9059cbb83856040518363ffffffff1660e01b81526004016106b092919061100c565b6020604051808303816000875af11580156106cf573d6000803e3d6000fd5b505050506040513d601f19601f820116820180604052508101906106f3919061106d565b610732576040517f08c379a00000000000000000000000000000000000000000000000000000000081526004016107299061110c565b60405180910390fd5b7f92fa5d2512a0c91c94e90087fc2ded03ce1ec5b10ef5c729af19bd597fc88d5f854286600101548760020160009054906101000a900473ffffffffffffffffffffffffffffffffffffffff168860030160009054906101000a900473ffffffffffffffffffffffffffffffffffffffff168960040160009054906101000a900473ffffffffffffffffffffffffffffffffffffffff166040516107db96959493929190611392565b60405180910390a15050505050565b60006020528060005260406000206000915090508060000154908060010154908060020160009054906101000a900473ffffffffffffffffffffffffffffffffffffffff16908060030160009054906101000a900473ffffffffffffffffffffffffffffffffffffffff16908060040160009054906101000a900473ffffffffffffffffffffffffffffffffffffffff16905085565b600080600087815260200190815260200160002060010154146108d8576040517f08c379a00000000000000000000000000000000000000000000000000000000081526004016108cf90611465565b60405180910390fd5b6000831161091b576040517f08c379a0000000000000000000000000000000000000000000000000000000008152600401610912906114d1565b60405180910390fd5b6040518060a001604052808581526020018481526020018373ffffffffffffffffffffffffffffffffffffffff1681526020013373ffffffffffffffffffffffffffffffffffffffff1681526020018273ffffffffffffffffffffffffffffffffffffffff16815250600080878152602001908152602001600020600082015181600001556020820151816001015560408201518160020160006101000a81548173ffffffffffffffffffffffffffffffffffffffff021916908373ffffffffffffffffffffffffffffffffffffffff16021790555060608201518160030160006101000a81548173ffffffffffffffffffffffffffffffffffffffff021916908373ffffffffffffffffffffffffffffffffffffffff16021790555060808201518160040160006101000a81548173ffffffffffffffffffffffffffffffffffffffff021916908373ffffffffffffffffffffffffffffffffffffffff16021790555090505060008290508073ffffffffffffffffffffffffffffffffffffffff166323b872dd3330876040518463ffffffff1660e01b8152600401610ac4939291906114f1565b6020604051808303816000875af1158015610ae3573d6000803e3d6000fd5b505050506040513d601f19601f82011682018060405250810190610b07919061106d565b610b46576040517f08c379a0000000000000000000000000000000000000000000000000000000008152600401610b3d9061159a565b60405180910390fd5b505050505050565b600080fd5b600080fd5b600080fd5b600080fd5b600080fd5b60008083601f840112610b7d57610b7c610b58565b5b8235905067ffffffffffffffff811115610b9a57610b99610b5d565b5b602083019150836001820283011115610bb657610bb5610b62565b5b9250929050565b60008060208385031215610bd457610bd3610b4e565b5b600083013567ffffffffffffffff811115610bf257610bf1610b53565b5b610bfe85828601610b67565b92509250509250929050565b6000819050919050565b610c1d81610c0a565b8114610c2857600080fd5b50565b600081359050610c3a81610c14565b92915050565b600060208284031215610c5657610c55610b4e565b5b6000610c6484828501610c2b565b91505092915050565b6000819050919050565b610c8081610c6d565b82525050565b600073ffffffffffffffffffffffffffffffffffffffff82169050919050565b6000610cb182610c86565b9050919050565b610cc181610ca6565b82525050565b600060a082019050610cdc6000830188610c77565b610ce96020830187610c77565b610cf66040830186610cb8565b610d036060830185610cb8565b610d106080830184610cb8565b9695505050505050565b610d2381610c6d565b8114610d2e57600080fd5b50565b600081359050610d4081610d1a565b92915050565b610d4f81610ca6565b8114610d5a57600080fd5b50565b600081359050610d6c81610d46565b92915050565b600080600080600060a08688031215610d8e57610d8d610b4e565b5b6000610d9c88828901610c2b565b9550506020610dad88828901610d31565b9450506040610dbe88828901610d31565b9350506060610dcf88828901610d5d565b9250506080610de088828901610d5d565b9150509295509295909350565b600081905092915050565b82818337600083830152505050565b6000610e138385610ded565b9350610e20838584610df8565b82840190509392505050565b6000610e39828486610e07565b91508190509392505050565b600082825260208201905092915050565b7f48544c433a206e6f7420612076616c6964207072652d696d61676520666f722060008201527f616e792068617368000000000000000000000000000000000000000000000000602082015250565b6000610eb2602883610e45565b9150610ebd82610e56565b604082019050919050565b60006020820190508181036000830152610ee181610ea5565b9050919050565b7f48544c433a2063616e206f6e6c7920636c61696d206265666f7265207468652060008201527f756e6c6f636b2074696d65000000000000000000000000000000000000000000602082015250565b6000610f44602b83610e45565b9150610f4f82610ee8565b604082019050919050565b60006020820190508181036000830152610f7381610f37565b9050919050565b7f48544c433a206f6e6c79207468652072656365697665722063616e20636c616960008201527f6d00000000000000000000000000000000000000000000000000000000000000602082015250565b6000610fd6602183610e45565b9150610fe182610f7a565b604082019050919050565b6000602082019050818103600083015261100581610fc9565b9050919050565b60006040820190506110216000830185610cb8565b61102e6020830184610c77565b9392505050565b60008115159050919050565b61104a81611035565b811461105557600080fd5b50565b60008151905061106781611041565b92915050565b60006020828403121561108357611082610b4e565b5b600061109184828501611058565b91505092915050565b7f48544c433a206572633230207472616e73666572206d7573742062652073756360008201527f6365737366756c00000000000000000000000000000000000000000000000000602082015250565b60006110f6602783610e45565b91506111018261109a565b604082019050919050565b60006020820190508181036000830152611125816110e9565b9050919050565b600082825260208201905092915050565b6000601f19601f8301169050919050565b600061115a838561112c565b9350611167838584610df8565b6111708361113d565b840190509392505050565b61118481610c0a565b82525050565b600060e08201905081810360008301526111a5818a8c61114e565b90506111b4602083018961117b565b6111c16040830188610c77565b6111ce6060830187610c77565b6111db6080830186610cb8565b6111e860a0830185610cb8565b6111f560c0830184610cb8565b9998505050505050505050565b7f48544c433a206e6f206c6f636b2065786973747320666f72207468652067697660008201527f656e206861736800000000000000000000000000000000000000000000000000602082015250565b600061125e602783610e45565b915061126982611202565b604082019050919050565b6000602082019050818103600083015261128d81611251565b9050919050565b7f48544c433a2063616e206f6e6c7920726574616b65206f6e206f72206166746560008201527f722074686520756e6c6f636b2074696d65000000000000000000000000000000602082015250565b60006112f0603183610e45565b91506112fb82611294565b604082019050919050565b6000602082019050818103600083015261131f816112e3565b9050919050565b7f48544c433a206f6e6c79207468652073656e6465722063616e20726574616b65600082015250565b600061135c602083610e45565b915061136782611326565b602082019050919050565b6000602082019050818103600083015261138b8161134f565b9050919050565b600060c0820190506113a7600083018961117b565b6113b46020830188610c77565b6113c16040830187610c77565b6113ce6060830186610cb8565b6113db6080830185610cb8565b6113e860a0830184610cb8565b979650505050505050565b7f48544c433a206c6f636b2063616e6e6f7420616c72656164792065786973742060008201527f666f72207468652073616d6520686173682076616c7565000000000000000000602082015250565b600061144f603783610e45565b915061145a826113f3565b604082019050919050565b6000602082019050818103600083015261147e81611442565b9050919050565b7f48544c433a2063616e6e6f74206c6f636b207a65726f20746f6b656e73000000600082015250565b60006114bb601d83610e45565b91506114c682611485565b602082019050919050565b600060208201905081810360008301526114ea816114ae565b9050919050565b60006060820190506115066000830186610cb8565b6115136020830185610cb8565b6115206040830184610c77565b949350505050565b7f48544c433a206572633230207472616e7366657220666f72206c6f636b696e6760008201527f206d757374206265207375636365737366756c00000000000000000000000000602082015250565b6000611584603383610e45565b915061158f82611528565b604082019050919050565b600060208201905081810360008301526115b381611577565b905091905056fea264697066735822122081e83539c368fdb7ad978aa630eacc569609c70cfc8d70c10a0484e8a4424db564736f6c63430008110033",
  "linkReferences": {},
  "deployedLinkReferences": {}
}